:020000040000FA
:020000001D28B9
:040002000034003492
:08000800A000030EA1000B1182
:10001000F23081000430AB0729082B0203180610C8
:10002000031C06142C082B0203188610031C8614CC
:0A003000210E8300A00E200E09002F
:06003A005720752088200C
:100040005D209920B62083120313AE01C6209F14B1
:100050009F1828280C131E08A2008C1E38281A0886
:10006000A300890A2E0882073D28422848285028E4
:100070000C1E3828220899002628AE0A1F152308CE
:1000800095003828AE0A9F151F1123089B003828B9
:10009000AE0A1F15230CA400240C3F39A9003828F0
:1000A000AE011F119F11230CAC003828262883169F
:1000B00003130F178F160F1208008316031318125D
:1000C0001815831603178715831603133330990009
:1000D0009A01831203139817181318168316031323
:1000E00098168312031388010800831603138501F1
:1000F0008601870188018901831603178801890118
:100100008312031385018601870188018901080094
:10011000FF30920095013C3097009B010F309D000D
:100120008901870141309F0083120313063092003A
:100130000800831203139F131F179F121F129F1192
:100140001F11831603139F139F121F128312031391
:100150001F148316031305148514051585158316BE
:10016000031708148814081588150800831603134C
:1001700081128111011181140110831203138B1755
:100180008B160B130B11F230810008000A30A60009
:10019000CC20A60BC8280800FA30A500A50BCE2855
:0201A000080055
:02400E00D420BC
:02401000FF3F70
:00000001FF
