:020000040000FA
:020000002328B3
:040002000034003492
:08000800A000030EA1000B1182
:10001000F23081000430AB07290CAA002A0C3F39CA
:100020002B0203180610031C06142C0CAD002D0C1B
:100030003F392B0203188610031C8614210E8300FF
:06004000A00E200E0900D5
:0A004600422060207320482084202F
:100050009E2083120313AD209F149F182D280C138C
:100060001E08A700A900AC008C1E3D281A08A3009A
:10007000230CA400240C3F399500270899000C1E7E
:100080003F282B28831603130F178F120F12080017
:100090008316031318121815831603178715831672
:1000A0000313193099009A01831203139817181338
:1000B0001816831603139816831203138801080079
:1000C0008316031385018601870188018901831640
:1000D00003178801890183120313850186018701B3
:1000E000880189010800FF30920095013C3097009B
:1000F0009B010F309D008901870141309F008312D1
:100100000313063092000800831203139F131F1776
:100110009F121F129F111F11831603139F139F120B
:100120001F12831203131F1483160313051485145F
:100130000515851583160317081408008316031385
:1001400081128111011181100110831203138B1789
:100150008B160B130B11F23081003230A600B32046
:10016000A60BAF280800FA30A500A50BB52808009B
:02400E00D420BC
:02401000FF3F70
:00000001FF
