:020000040000FA
:020000001D28B9
:040002000034003492
:08000800A000030EA1000B1182
:10001000F23081000430AB0729082B0203180610C8
:10002000031C06142C082B0203188610031C8614CC
:0A003000210E8300A00E200E09002F
:06003A0058207620892009
:100040005E209A20B72083120313AE01C7209F14AD
:100050009F1828280C131E08A20022108C1E392875
:100060001A08A300890A2E0882073E284328492837
:100070005128220899000C1E3B282628AE0A1F157D
:10008000230895003928AE0A9F151F1123089B00ED
:100090003928AE0A1F15230CA400240C3F39A900EF
:1000A0003928AE011F119F11230CAC0039282628D6
:1000B000831603130F178F160F12080083160313EE
:1000C0001812181583160317871583160313333078
:1000D00099009A01831203139817181318168316A0
:1000E0000313981683120313880108008316031361
:1000F000850186018701880189018316031788011C
:100100008901831203138501860187018801890112
:100110000800FF30920095013C3097009B010F30A2
:100120009D008901870141309F008312031306302F
:1001300092000800831203139F131F179F121F12B0
:100140009F111F11831603139F139F121F128312F7
:1001500003131F1483160313051485140515851541
:1001600083160317081488140815881508008316C9
:1001700003138112811101118114011083120313E1
:100180008B178B160B130B11F2308100080008300F
:10019000A600CD20A60BC9280800FA30A500A50BA3
:0401A000CF2808005C
:02400E00D420BC
:02401000FF3F70
:00000001FF
