:020000040000FA
:020000001D28B9
:040002000034003492
:08000800A000030EA1000B1182
:10001000F23081000430AB0729082B0203180610C8
:10002000031C06142C082B0203188610031C8614CC
:0A003000210E8300A00E200E09002F
:06003A005A2078208B2003
:1000400060209C20B62083120313AE01C6209F14AB
:100050009F1828280C131E08A2008C1E3C281A0882
:10006000A300230CA400240C3F39A4002E0882070F
:10007000412846284D285228220899000C1E3E2867
:100080002628AE0A1F15240895003C28AE0A9F15A5
:100090001F1124089B0006153C28AE0A1F152408D2
:1000A000A9003C28AE011F119F112408AC003C2878
:1000B00006112628831603130F178F120F1208003C
:1000C0008316031318121815831603178715831642
:1000D0000313193099009A01831203139817181308
:1000E0001816831603139816831203138801080049
:1000F0008316031385018601870188018901831610
:100100000317880189018312031385018601870182
:10011000880189010800FF30920095013C3097006A
:100120009B010F309D008901870141309F008312A0
:100130000313063092000800831203139F131F1746
:100140009F121F129F111F11831603139F139F12DB
:100150001F12831203131F1483160313051485142F
:100160000515851583160317081408008316031355
:1001700081128111011181100110831203138B1759
:100180008B160B130B11F230810008000230A60011
:10019000CC20A60BC8280800FA30A500A50BCE2855
:0201A000080055
:02400E00D420BC
:02401000FF3F70
:00000001FF
