:020000040000FA
:020000001A28BC
:040002000034003492
:08000800A000030EA1000B1182
:10001000F23081000430AB07290CAA002A0C3F39CA
:100020002B0203180610031C0614210E8300A00ED9
:04003000200E090095
:0C0034003420522065203A2076209020D5
:10004000831203139F209F149F1824280C131E084B
:10005000A700A900270CA400240C3F39950027080D
:1000600099000C1E31282228831603130F178F12B4
:100070000F1208008316031318121815831603179E
:10008000871583160313193099009A0183120313FD
:100090009817181318168316031398168312031350
:1000A00088010800831603138501860187018801F2
:1000B00089018316031788018901831203138501BF
:1000C00086018701880189010800FF3092009501AF
:1000D0003C3097009B010F309D0089018701413022
:1000E0009F0083120313063092000800831203134B
:1000F0009F131F179F121F129F111F1183160313A7
:100100009F139F121F12831203131F1483160313CE
:1001100005148514051585158316031708140800A2
:1001200083160313811281110111811001108312B2
:1001300003138B178B160B130B11F23081006430F5
:10014000A600A520A60BA1280800FA30A500A50B43
:04015000A7280800D4
:02400E00D420BC
:02401000FF3F70
:00000001FF
